{
  "_format": "hh-sol-artifact-1",
  "contractName": "DeHiveToken",
  "sourceName": "contracts/dehive.sol",
  "abi": [
    {
      "inputs": [
        {
          "internalType": "string",
          "name": "_name",
          "type": "string"
        }
      ],
      "stateMutability": "nonpayable",
      "type": "constructor"
    },
    {
      "anonymous": false,
      "inputs": [
        {
          "indexed": true,
          "internalType": "address",
          "name": "account",
          "type": "address"
        },
        {
          "indexed": true,
          "internalType": "address",
          "name": "operator",
          "type": "address"
        },
        {
          "indexed": false,
          "internalType": "bool",
          "name": "approved",
          "type": "bool"
        }
      ],
      "name": "ApprovalForAll",
      "type": "event"
    },
    {
      "anonymous": false,
      "inputs": [
        {
          "indexed": false,
          "internalType": "uint256",
          "name": "memberId",
          "type": "uint256"
        },
        {
          "indexed": false,
          "internalType": "string",
          "name": "name",
          "type": "string"
        },
        {
          "indexed": false,
          "internalType": "string",
          "name": "metadataUrl",
          "type": "string"
        }
      ],
      "name": "MemberAdded",
      "type": "event"
    },
    {
      "anonymous": false,
      "inputs": [
        {
          "indexed": true,
          "internalType": "address",
          "name": "previousOwner",
          "type": "address"
        },
        {
          "indexed": true,
          "internalType": "address",
          "name": "newOwner",
          "type": "address"
        }
      ],
      "name": "OwnershipTransferred",
      "type": "event"
    },
    {
      "anonymous": false,
      "inputs": [
        {
          "indexed": true,
          "internalType": "address",
          "name": "operator",
          "type": "address"
        },
        {
          "indexed": true,
          "internalType": "address",
          "name": "from",
          "type": "address"
        },
        {
          "indexed": true,
          "internalType": "address",
          "name": "to",
          "type": "address"
        },
        {
          "indexed": false,
          "internalType": "uint256[]",
          "name": "ids",
          "type": "uint256[]"
        },
        {
          "indexed": false,
          "internalType": "uint256[]",
          "name": "values",
          "type": "uint256[]"
        }
      ],
      "name": "TransferBatch",
      "type": "event"
    },
    {
      "anonymous": false,
      "inputs": [
        {
          "indexed": true,
          "internalType": "address",
          "name": "operator",
          "type": "address"
        },
        {
          "indexed": true,
          "internalType": "address",
          "name": "from",
          "type": "address"
        },
        {
          "indexed": true,
          "internalType": "address",
          "name": "to",
          "type": "address"
        },
        {
          "indexed": false,
          "internalType": "uint256",
          "name": "id",
          "type": "uint256"
        },
        {
          "indexed": false,
          "internalType": "uint256",
          "name": "value",
          "type": "uint256"
        }
      ],
      "name": "TransferSingle",
      "type": "event"
    },
    {
      "anonymous": false,
      "inputs": [
        {
          "indexed": false,
          "internalType": "string",
          "name": "value",
          "type": "string"
        },
        {
          "indexed": true,
          "internalType": "uint256",
          "name": "id",
          "type": "uint256"
        }
      ],
      "name": "URI",
      "type": "event"
    },
    {
      "inputs": [
        {
          "internalType": "address",
          "name": "redeemer",
          "type": "address"
        },
        {
          "internalType": "uint256",
          "name": "_memberId",
          "type": "uint256"
        },
        {
          "components": [
            {
              "internalType": "uint256",
              "name": "tokenId",
              "type": "uint256"
            },
            {
              "internalType": "uint256",
              "name": "minPrice",
              "type": "uint256"
            },
            {
              "internalType": "string",
              "name": "uri",
              "type": "string"
            },
            {
              "internalType": "bytes",
              "name": "signature",
              "type": "bytes"
            }
          ],
          "internalType": "struct DeHiveToken.NFTVoucher",
          "name": "voucher",
          "type": "tuple"
        }
      ],
      "name": "acceptInvite",
      "outputs": [
        {
          "internalType": "uint256",
          "name": "",
          "type": "uint256"
        }
      ],
      "stateMutability": "payable",
      "type": "function"
    },
    {
      "inputs": [
        {
          "internalType": "uint256",
          "name": "_memberId",
          "type": "uint256"
        }
      ],
      "name": "acceptInviteOpen",
      "outputs": [],
      "stateMutability": "nonpayable",
      "type": "function"
    },
    {
      "inputs": [
        {
          "internalType": "uint256",
          "name": "_memberId",
          "type": "uint256"
        }
      ],
      "name": "acceptOneInvite",
      "outputs": [],
      "stateMutability": "nonpayable",
      "type": "function"
    },
    {
      "inputs": [
        {
          "internalType": "string",
          "name": "_name",
          "type": "string"
        },
        {
          "internalType": "string",
          "name": "_metadataUrl",
          "type": "string"
        }
      ],
      "name": "addMember",
      "outputs": [],
      "stateMutability": "nonpayable",
      "type": "function"
    },
    {
      "inputs": [
        {
          "internalType": "address",
          "name": "account",
          "type": "address"
        },
        {
          "internalType": "uint256",
          "name": "id",
          "type": "uint256"
        }
      ],
      "name": "balanceOf",
      "outputs": [
        {
          "internalType": "uint256",
          "name": "",
          "type": "uint256"
        }
      ],
      "stateMutability": "view",
      "type": "function"
    },
    {
      "inputs": [
        {
          "internalType": "address[]",
          "name": "accounts",
          "type": "address[]"
        },
        {
          "internalType": "uint256[]",
          "name": "ids",
          "type": "uint256[]"
        }
      ],
      "name": "balanceOfBatch",
      "outputs": [
        {
          "internalType": "uint256[]",
          "name": "",
          "type": "uint256[]"
        }
      ],
      "stateMutability": "view",
      "type": "function"
    },
    {
      "inputs": [
        {
          "internalType": "uint256",
          "name": "id",
          "type": "uint256"
        }
      ],
      "name": "exists",
      "outputs": [
        {
          "internalType": "bool",
          "name": "",
          "type": "bool"
        }
      ],
      "stateMutability": "view",
      "type": "function"
    },
    {
      "inputs": [],
      "name": "getMemberId",
      "outputs": [
        {
          "internalType": "uint256",
          "name": "output",
          "type": "uint256"
        }
      ],
      "stateMutability": "view",
      "type": "function"
    },
    {
      "inputs": [
        {
          "internalType": "address",
          "name": "account",
          "type": "address"
        },
        {
          "internalType": "address",
          "name": "operator",
          "type": "address"
        }
      ],
      "name": "isApprovedForAll",
      "outputs": [
        {
          "internalType": "bool",
          "name": "",
          "type": "bool"
        }
      ],
      "stateMutability": "view",
      "type": "function"
    },
    {
      "inputs": [],
      "name": "listMembers",
      "outputs": [
        {
          "components": [
            {
              "internalType": "uint256",
              "name": "friendCount",
              "type": "uint256"
            },
            {
              "internalType": "string",
              "name": "profileName",
              "type": "string"
            },
            {
              "internalType": "string",
              "name": "metadataUrl",
              "type": "string"
            },
            {
              "internalType": "address",
              "name": "owner",
              "type": "address"
            }
          ],
          "internalType": "struct DeHiveToken.DeHiveMember[]",
          "name": "_members",
          "type": "tuple[]"
        }
      ],
      "stateMutability": "view",
      "type": "function"
    },
    {
      "inputs": [
        {
          "internalType": "address",
          "name": "",
          "type": "address"
        }
      ],
      "name": "memberByAddress",
      "outputs": [
        {
          "internalType": "uint256",
          "name": "",
          "type": "uint256"
        }
      ],
      "stateMutability": "view",
      "type": "function"
    },
    {
      "inputs": [
        {
          "internalType": "uint256",
          "name": "",
          "type": "uint256"
        }
      ],
      "name": "members",
      "outputs": [
        {
          "internalType": "uint256",
          "name": "friendCount",
          "type": "uint256"
        },
        {
          "internalType": "string",
          "name": "profileName",
          "type": "string"
        },
        {
          "internalType": "string",
          "name": "metadataUrl",
          "type": "string"
        },
        {
          "internalType": "address",
          "name": "owner",
          "type": "address"
        }
      ],
      "stateMutability": "view",
      "type": "function"
    },
    {
      "inputs": [],
      "name": "name",
      "outputs": [
        {
          "internalType": "string",
          "name": "",
          "type": "string"
        }
      ],
      "stateMutability": "view",
      "type": "function"
    },
    {
      "inputs": [],
      "name": "owner",
      "outputs": [
        {
          "internalType": "address",
          "name": "",
          "type": "address"
        }
      ],
      "stateMutability": "view",
      "type": "function"
    },
    {
      "inputs": [],
      "name": "renounceOwnership",
      "outputs": [],
      "stateMutability": "nonpayable",
      "type": "function"
    },
    {
      "inputs": [
        {
          "internalType": "address",
          "name": "from",
          "type": "address"
        },
        {
          "internalType": "address",
          "name": "to",
          "type": "address"
        },
        {
          "internalType": "uint256[]",
          "name": "ids",
          "type": "uint256[]"
        },
        {
          "internalType": "uint256[]",
          "name": "amounts",
          "type": "uint256[]"
        },
        {
          "internalType": "bytes",
          "name": "data",
          "type": "bytes"
        }
      ],
      "name": "safeBatchTransferFrom",
      "outputs": [],
      "stateMutability": "nonpayable",
      "type": "function"
    },
    {
      "inputs": [
        {
          "internalType": "address",
          "name": "from",
          "type": "address"
        },
        {
          "internalType": "address",
          "name": "to",
          "type": "address"
        },
        {
          "internalType": "uint256",
          "name": "id",
          "type": "uint256"
        },
        {
          "internalType": "uint256",
          "name": "amount",
          "type": "uint256"
        },
        {
          "internalType": "bytes",
          "name": "data",
          "type": "bytes"
        }
      ],
      "name": "safeTransferFrom",
      "outputs": [],
      "stateMutability": "nonpayable",
      "type": "function"
    },
    {
      "inputs": [
        {
          "internalType": "uint256",
          "name": "_memberId",
          "type": "uint256"
        },
        {
          "internalType": "uint256",
          "name": "_memberCount",
          "type": "uint256"
        },
        {
          "internalType": "address[]",
          "name": "_list",
          "type": "address[]"
        }
      ],
      "name": "sendMultipleInvite",
      "outputs": [],
      "stateMutability": "nonpayable",
      "type": "function"
    },
    {
      "inputs": [
        {
          "internalType": "uint256",
          "name": "_memberId",
          "type": "uint256"
        },
        {
          "internalType": "address[]",
          "name": "_list",
          "type": "address[]"
        }
      ],
      "name": "sendOneInvite",
      "outputs": [],
      "stateMutability": "nonpayable",
      "type": "function"
    },
    {
      "inputs": [
        {
          "internalType": "address",
          "name": "operator",
          "type": "address"
        },
        {
          "internalType": "bool",
          "name": "approved",
          "type": "bool"
        }
      ],
      "name": "setApprovalForAll",
      "outputs": [],
      "stateMutability": "nonpayable",
      "type": "function"
    },
    {
      "inputs": [
        {
          "internalType": "bytes4",
          "name": "interfaceId",
          "type": "bytes4"
        }
      ],
      "name": "supportsInterface",
      "outputs": [
        {
          "internalType": "bool",
          "name": "",
          "type": "bool"
        }
      ],
      "stateMutability": "view",
      "type": "function"
    },
    {
      "inputs": [],
      "name": "totalMembers",
      "outputs": [
        {
          "internalType": "uint256",
          "name": "",
          "type": "uint256"
        }
      ],
      "stateMutability": "view",
      "type": "function"
    },
    {
      "inputs": [
        {
          "internalType": "uint256",
          "name": "id",
          "type": "uint256"
        }
      ],
      "name": "totalSupply",
      "outputs": [
        {
          "internalType": "uint256",
          "name": "",
          "type": "uint256"
        }
      ],
      "stateMutability": "view",
      "type": "function"
    },
    {
      "inputs": [
        {
          "internalType": "address",
          "name": "newOwner",
          "type": "address"
        }
      ],
      "name": "transferOwnership",
      "outputs": [],
      "stateMutability": "nonpayable",
      "type": "function"
    },
    {
      "inputs": [
        {
          "internalType": "uint256",
          "name": "_memberId",
          "type": "uint256"
        }
      ],
      "name": "uri",
      "outputs": [
        {
          "internalType": "string",
          "name": "output",
          "type": "string"
        }
      ],
      "stateMutability": "view",
      "type": "function"
    },
    {
      "inputs": [
        {
          "internalType": "uint256",
          "name": "_memberAddress",
          "type": "uint256"
        }
      ],
      "name": "uriByAddress",
      "outputs": [
        {
          "internalType": "string",
          "name": "output",
          "type": "string"
        }
      ],
      "stateMutability": "view",
      "type": "function"
    },
    {
      "inputs": [],
      "name": "withdraw",
      "outputs": [],
      "stateMutability": "nonpayable",
      "type": "function"
    }
  ],
  "bytecode": "0x6101406040523480156200001257600080fd5b506040516200565838038062005658833981810160405281019062000038919062000551565b6040518060400160405280601181526020017f4465486976654e46542d566f75636865720000000000000000000000000000008152506040518060400160405280600181526020017f31000000000000000000000000000000000000000000000000000000000000008152506040518060400160405280601281526020017f68747470733a2f2f6465686976652e6574680000000000000000000000000000815250620000eb81620001de60201b60201c565b5060008280519060200120905060008280519060200120905060007f8b73c3c69bb8fe3d512ecc4cf759cc79239f7b179b0ffacaa9a75d522b39400f90508260e081815250508161010081815250504660a0818152505062000155818484620001fa60201b60201c565b608081815250503073ffffffffffffffffffffffffffffffffffffffff1660c08173ffffffffffffffffffffffffffffffffffffffff16815250508061012081815250505050505050620001be620001b26200023660201b60201c565b6200023e60201b60201c565b8060059080519060200190620001d692919062000304565b5050620006df565b8060029080519060200190620001f692919062000304565b5050565b60008383834630604051602001620002179594939291906200061d565b6040516020818303038152906040528051906020012090509392505050565b600033905090565b6000600460009054906101000a900473ffffffffffffffffffffffffffffffffffffffff16905081600460006101000a81548173ffffffffffffffffffffffffffffffffffffffff021916908373ffffffffffffffffffffffffffffffffffffffff1602179055508173ffffffffffffffffffffffffffffffffffffffff168173ffffffffffffffffffffffffffffffffffffffff167f8be0079c531659141344cd1fd0a4f28419497f9722a3daafe3b4186f6b6457e060405160405180910390a35050565b8280546200031290620006a9565b90600052602060002090601f01602090048101928262000336576000855562000382565b82601f106200035157805160ff191683800117855562000382565b8280016001018555821562000382579182015b828111156200038157825182559160200191906001019062000364565b5b50905062000391919062000395565b5090565b5b80821115620003b057600081600090555060010162000396565b5090565b6000604051905090565b600080fd5b600080fd5b600080fd5b600080fd5b6000601f19601f8301169050919050565b7f4e487b7100000000000000000000000000000000000000000000000000000000600052604160045260246000fd5b6200041d82620003d2565b810181811067ffffffffffffffff821117156200043f576200043e620003e3565b5b80604052505050565b600062000454620003b4565b905062000462828262000412565b919050565b600067ffffffffffffffff821115620004855762000484620003e3565b5b6200049082620003d2565b9050602081019050919050565b60005b83811015620004bd578082015181840152602081019050620004a0565b83811115620004cd576000848401525b50505050565b6000620004ea620004e48462000467565b62000448565b905082815260208101848484011115620005095762000508620003cd565b5b620005168482856200049d565b509392505050565b600082601f830112620005365762000535620003c8565b5b815162000548848260208601620004d3565b91505092915050565b6000602082840312156200056a5762000569620003be565b5b600082015167ffffffffffffffff8111156200058b576200058a620003c3565b5b62000599848285016200051e565b91505092915050565b6000819050919050565b620005b781620005a2565b82525050565b6000819050919050565b620005d281620005bd565b82525050565b600073ffffffffffffffffffffffffffffffffffffffff82169050919050565b60006200060582620005d8565b9050919050565b6200061781620005f8565b82525050565b600060a082019050620006346000830188620005ac565b620006436020830187620005ac565b620006526040830186620005ac565b620006616060830185620005c7565b6200067060808301846200060c565b9695505050505050565b7f4e487b7100000000000000000000000000000000000000000000000000000000600052602260045260246000fd5b60006002820490506001821680620006c257607f821691505b60208210811415620006d957620006d86200067a565b5b50919050565b60805160a05160c05160e0516101005161012051614f296200072f6000396000612d4601526000612d8801526000612d6701526000612c9c01526000612cf201526000612d1b0152614f296000f3fe60806040526004361061019b5760003560e01c806376e92559116100ec578063bd85b0391161008a578063ea6c38ef11610064578063ea6c38ef14610607578063f242432a14610630578063f2fde38b14610659578063fd1f2caa146106825761019b565b8063bd85b03914610562578063db2959291461059f578063e985e9c5146105ca5761019b565b8063990184d8116100c6578063990184d8146104bc578063a22cb465146104e5578063b12f1d371461050e578063b6afd2ca146105375761019b565b806376e92559146104365780638da5cb5b1461046157806391c5d9741461048c5761019b565b80633ccfd60b116101595780634f6ca20e116101335780634f6ca20e146103795780635daf08ca146103a2578063711b22a5146103e2578063715018a61461041f5761019b565b80633ccfd60b146102e85780634e1273f4146102ff5780634f558e791461033c5761019b565b8062fdd58e146101a057806301ffc9a7146101dd57806306fdde031461021a5780630e89341c146102455780631f7a1408146102825780632eb2c2d6146102bf575b600080fd5b3480156101ac57600080fd5b506101c760048036038101906101c291906130b5565b6106ab565b6040516101d49190613104565b60405180910390f35b3480156101e957600080fd5b5061020460048036038101906101ff9190613177565b610774565b60405161021191906131bf565b60405180910390f35b34801561022657600080fd5b5061022f610856565b60405161023c9190613273565b60405180910390f35b34801561025157600080fd5b5061026c60048036038101906102679190613295565b6108e4565b6040516102799190613273565b60405180910390f35b34801561028e57600080fd5b506102a960048036038101906102a49190613295565b610ae1565b6040516102b69190613273565b60405180910390f35b3480156102cb57600080fd5b506102e660048036038101906102e191906134bf565b610d23565b005b3480156102f457600080fd5b506102fd610dc4565b005b34801561030b57600080fd5b5061032660048036038101906103219190613651565b610e18565b6040516103339190613787565b60405180910390f35b34801561034857600080fd5b50610363600480360381019061035e9190613295565b610f31565b60405161037091906131bf565b60405180910390f35b34801561038557600080fd5b506103a0600480360381019061039b9190613804565b610f45565b005b3480156103ae57600080fd5b506103c960048036038101906103c49190613295565b610fdf565b6040516103d99493929190613887565b60405180910390f35b3480156103ee57600080fd5b50610409600480360381019061040491906138da565b61113f565b6040516104169190613104565b60405180910390f35b34801561042b57600080fd5b50610434611157565b005b34801561044257600080fd5b5061044b61116b565b6040516104589190613104565b60405180910390f35b34801561046d57600080fd5b50610476611171565b6040516104839190613907565b60405180910390f35b6104a660048036038101906104a19190613946565b61119b565b6040516104b39190613104565b60405180910390f35b3480156104c857600080fd5b506104e360048036038101906104de91906139b5565b6111d4565b005b3480156104f157600080fd5b5061050c60048036038101906105079190613a41565b6111e6565b005b34801561051a57600080fd5b5061053560048036038101906105309190613295565b6111fc565b005b34801561054357600080fd5b5061054c61124c565b6040516105599190613c06565b60405180910390f35b34801561056e57600080fd5b5061058960048036038101906105849190613295565b611492565b6040516105969190613104565b60405180910390f35b3480156105ab57600080fd5b506105b46114af565b6040516105c19190613104565b60405180910390f35b3480156105d657600080fd5b506105f160048036038101906105ec9190613c28565b6114f6565b6040516105fe91906131bf565b60405180910390f35b34801561061357600080fd5b5061062e60048036038101906106299190613d09565b61158a565b005b34801561063c57600080fd5b5061065760048036038101906106529190613d81565b611718565b005b34801561066557600080fd5b50610680600480360381019061067b91906138da565b6117b9565b005b34801561068e57600080fd5b506106a960048036038101906106a49190613295565b61183d565b005b60008073ffffffffffffffffffffffffffffffffffffffff168373ffffffffffffffffffffffffffffffffffffffff16141561071c576040517f08c379a000000000000000000000000000000000000000000000000000000000815260040161071390613e8a565b60405180910390fd5b60008083815260200190815260200160002060008473ffffffffffffffffffffffffffffffffffffffff1673ffffffffffffffffffffffffffffffffffffffff16815260200190815260200160002054905092915050565b60007fd9b67a26000000000000000000000000000000000000000000000000000000007bffffffffffffffffffffffffffffffffffffffffffffffffffffffff1916827bffffffffffffffffffffffffffffffffffffffffffffffffffffffff1916148061083f57507f0e89341c000000000000000000000000000000000000000000000000000000007bffffffffffffffffffffffffffffffffffffffffffffffffffffffff1916827bffffffffffffffffffffffffffffffffffffffffffffffffffffffff1916145b8061084f575061084e8261185c565b5b9050919050565b6005805461086390613ed9565b80601f016020809104026020016040519081016040528092919081815260200182805461088f90613ed9565b80156108dc5780601f106108b1576101008083540402835291602001916108dc565b820191906000526020600020905b8154815290600101906020018083116108bf57829003601f168201915b505050505081565b60606108ef82610f31565b61092e576040517f08c379a000000000000000000000000000000000000000000000000000000000815260040161092590613f57565b60405180910390fd5b6000600660008481526020019081526020016000206040518060800160405290816000820154815260200160018201805461096890613ed9565b80601f016020809104026020016040519081016040528092919081815260200182805461099490613ed9565b80156109e15780601f106109b6576101008083540402835291602001916109e1565b820191906000526020600020905b8154815290600101906020018083116109c457829003601f168201915b505050505081526020016002820180546109fa90613ed9565b80601f0160208091040260200160405190810160405280929190818152602001828054610a2690613ed9565b8015610a735780601f10610a4857610100808354040283529160200191610a73565b820191906000526020600020905b815481529060010190602001808311610a5657829003601f168201915b505050505081526020016003820160009054906101000a900473ffffffffffffffffffffffffffffffffffffffff1673ffffffffffffffffffffffffffffffffffffffff1673ffffffffffffffffffffffffffffffffffffffff168152505090508060400151915050919050565b60606000600760003373ffffffffffffffffffffffffffffffffffffffff1673ffffffffffffffffffffffffffffffffffffffff168152602001908152602001600020549050610b3081610f31565b610b6f576040517f08c379a0000000000000000000000000000000000000000000000000000000008152600401610b6690613f57565b60405180910390fd5b60006006600083815260200190815260200160002060405180608001604052908160008201548152602001600182018054610ba990613ed9565b80601f0160208091040260200160405190810160405280929190818152602001828054610bd590613ed9565b8015610c225780601f10610bf757610100808354040283529160200191610c22565b820191906000526020600020905b815481529060010190602001808311610c0557829003601f168201915b50505050508152602001600282018054610c3b90613ed9565b80601f0160208091040260200160405190810160405280929190818152602001828054610c6790613ed9565b8015610cb45780601f10610c8957610100808354040283529160200191610cb4565b820191906000526020600020905b815481529060010190602001808311610c9757829003601f168201915b505050505081526020016003820160009054906101000a900473ffffffffffffffffffffffffffffffffffffffff1673ffffffffffffffffffffffffffffffffffffffff1673ffffffffffffffffffffffffffffffffffffffff16815250509050806040015192505050919050565b610d2b6118c6565b73ffffffffffffffffffffffffffffffffffffffff168573ffffffffffffffffffffffffffffffffffffffff161480610d715750610d7085610d6b6118c6565b6114f6565b5b610db0576040517f08c379a0000000000000000000000000000000000000000000000000000000008152600401610da790613fe9565b60405180910390fd5b610dbd85858585856118ce565b5050505050565b610dcc611bf0565b600047905060008190503373ffffffffffffffffffffffffffffffffffffffff166108fc829081150290604051600060405180830381858888f19350505050610e1457600080fd5b5050565b60608151835114610e5e576040517f08c379a0000000000000000000000000000000000000000000000000000000008152600401610e559061407b565b60405180910390fd5b6000835167ffffffffffffffff811115610e7b57610e7a6132c7565b5b604051908082528060200260200182016040528015610ea95781602001602082028036833780820191505090505b50905060005b8451811015610f2657610ef6858281518110610ece57610ecd61409b565b5b6020026020010151858381518110610ee957610ee861409b565b5b60200260200101516106ab565b828281518110610f0957610f0861409b565b5b60200260200101818152505080610f1f906140f9565b9050610eaf565b508091505092915050565b600080610f3d83611492565b119050919050565b60005b82829050811015610fd8576000600660008781526020019081526020016000209050848160000154610f7a9190614142565b8160000181905550610fc4848484818110610f9857610f9761409b565b5b9050602002016020810190610fad91906138da565b878760405180602001604052806000815250611c6e565b508080610fd0906140f9565b915050610f48565b5050505050565b600660205280600052604060002060009150905080600001549080600101805461100890613ed9565b80601f016020809104026020016040519081016040528092919081815260200182805461103490613ed9565b80156110815780601f1061105657610100808354040283529160200191611081565b820191906000526020600020905b81548152906001019060200180831161106457829003601f168201915b50505050509080600201805461109690613ed9565b80601f01602080910402602001604051908101604052809291908181526020018280546110c290613ed9565b801561110f5780601f106110e45761010080835404028352916020019161110f565b820191906000526020600020905b8154815290600101906020018083116110f257829003601f168201915b5050505050908060030160009054906101000a900473ffffffffffffffffffffffffffffffffffffffff16905084565b60076020528060005260406000206000915090505481565b61115f611bf0565b6111696000611e1f565b565b60085481565b6000600460009054906101000a900473ffffffffffffffffffffffffffffffffffffffff16905090565b6000806111a783611ee5565b90506111c58585600160405180602001604052806000815250611c6e565b82600001359150509392505050565b6111e18360018484610f45565b505050565b6111f86111f16118c6565b8383611f57565b5050565b6000600660008381526020019081526020016000209050600181600001546112249190614142565b81600001819055506112483383600160405180602001604052806000815250611c6e565b5050565b6060611256611bf0565b60085467ffffffffffffffff811115611272576112716132c7565b5b6040519080825280602002602001820160405280156112ab57816020015b611298612f2c565b8152602001906001900390816112905790505b50905060005b60085481101561148e5760066000828152602001908152602001600020604051806080016040529081600082015481526020016001820180546112f390613ed9565b80601f016020809104026020016040519081016040528092919081815260200182805461131f90613ed9565b801561136c5780601f106113415761010080835404028352916020019161136c565b820191906000526020600020905b81548152906001019060200180831161134f57829003601f168201915b5050505050815260200160028201805461138590613ed9565b80601f01602080910402602001604051908101604052809291908181526020018280546113b190613ed9565b80156113fe5780601f106113d3576101008083540402835291602001916113fe565b820191906000526020600020905b8154815290600101906020018083116113e157829003601f168201915b505050505081526020016003820160009054906101000a900473ffffffffffffffffffffffffffffffffffffffff1673ffffffffffffffffffffffffffffffffffffffff1673ffffffffffffffffffffffffffffffffffffffff16815250508282815181106114705761146f61409b565b5b60200260200101819052508080611486906140f9565b9150506112b1565b5090565b600060036000838152602001908152602001600020549050919050565b6000600760003373ffffffffffffffffffffffffffffffffffffffff1673ffffffffffffffffffffffffffffffffffffffff16815260200190815260200160002054905090565b6000600160008473ffffffffffffffffffffffffffffffffffffffff1673ffffffffffffffffffffffffffffffffffffffff16815260200190815260200160002060008373ffffffffffffffffffffffffffffffffffffffff1673ffffffffffffffffffffffffffffffffffffffff16815260200190815260200160002060009054906101000a900460ff16905092915050565b6000600160085461159b9190614142565b905060006040518060800160405280600081526020018581526020018481526020013373ffffffffffffffffffffffffffffffffffffffff1681525090508060066000848152602001908152602001600020600082015181600001556020820151816001019080519060200190611613929190612f6a565b506040820151816002019080519060200190611630929190612f6a565b5060608201518160030160006101000a81548173ffffffffffffffffffffffffffffffffffffffff021916908373ffffffffffffffffffffffffffffffffffffffff16021790555090505081600760003373ffffffffffffffffffffffffffffffffffffffff1673ffffffffffffffffffffffffffffffffffffffff16815260200190815260200160002081905550600860008154809291906116d2906140f9565b91905055507f1c41b79e1d07021bf897b174c3fe3a4e422d7dea70ddd02e21c028e5e30a609982858560405161170a93929190614198565b60405180910390a150505050565b6117206118c6565b73ffffffffffffffffffffffffffffffffffffffff168573ffffffffffffffffffffffffffffffffffffffff1614806117665750611765856117606118c6565b6114f6565b5b6117a5576040517f08c379a000000000000000000000000000000000000000000000000000000000815260040161179c90613fe9565b60405180910390fd5b6117b285858585856120c4565b5050505050565b6117c1611bf0565b600073ffffffffffffffffffffffffffffffffffffffff168173ffffffffffffffffffffffffffffffffffffffff161415611831576040517f08c379a00000000000000000000000000000000000000000000000000000000081526004016118289061424f565b60405180910390fd5b61183a81611e1f565b50565b6118593382600160405180602001604052806000815250611c6e565b50565b60007f01ffc9a7000000000000000000000000000000000000000000000000000000007bffffffffffffffffffffffffffffffffffffffffffffffffffffffff1916827bffffffffffffffffffffffffffffffffffffffffffffffffffffffff1916149050919050565b600033905090565b8151835114611912576040517f08c379a0000000000000000000000000000000000000000000000000000000008152600401611909906142e1565b60405180910390fd5b600073ffffffffffffffffffffffffffffffffffffffff168473ffffffffffffffffffffffffffffffffffffffff161415611982576040517f08c379a000000000000000000000000000000000000000000000000000000000815260040161197990614373565b60405180910390fd5b600061198c6118c6565b905061199c818787878787612360565b60005b8451811015611b4d5760008582815181106119bd576119bc61409b565b5b6020026020010151905060008583815181106119dc576119db61409b565b5b60200260200101519050600080600084815260200190815260200160002060008b73ffffffffffffffffffffffffffffffffffffffff1673ffffffffffffffffffffffffffffffffffffffff16815260200190815260200160002054905081811015611a7d576040517f08c379a0000000000000000000000000000000000000000000000000000000008152600401611a7490614405565b60405180910390fd5b81810360008085815260200190815260200160002060008c73ffffffffffffffffffffffffffffffffffffffff1673ffffffffffffffffffffffffffffffffffffffff168152602001908152602001600020819055508160008085815260200190815260200160002060008b73ffffffffffffffffffffffffffffffffffffffff1673ffffffffffffffffffffffffffffffffffffffff1681526020019081526020016000206000828254611b329190614142565b9250508190555050505080611b46906140f9565b905061199f565b508473ffffffffffffffffffffffffffffffffffffffff168673ffffffffffffffffffffffffffffffffffffffff168273ffffffffffffffffffffffffffffffffffffffff167f4a39dc06d4c0dbc64b70af90fd698a233a518aa5d07e595d983b8c0526c8f7fb8787604051611bc4929190614425565b60405180910390a4611bda818787878787612376565b611be881878787878761237e565b505050505050565b611bf86118c6565b73ffffffffffffffffffffffffffffffffffffffff16611c16611171565b73ffffffffffffffffffffffffffffffffffffffff1614611c6c576040517f08c379a0000000000000000000000000000000000000000000000000000000008152600401611c63906144a8565b60405180910390fd5b565b600073ffffffffffffffffffffffffffffffffffffffff168473ffffffffffffffffffffffffffffffffffffffff161415611cde576040517f08c379a0000000000000000000000000000000000000000000000000000000008152600401611cd59061453a565b60405180910390fd5b6000611ce86118c6565b90506000611cf585612556565b90506000611d0285612556565b9050611d1383600089858589612360565b8460008088815260200190815260200160002060008973ffffffffffffffffffffffffffffffffffffffff1673ffffffffffffffffffffffffffffffffffffffff1681526020019081526020016000206000828254611d729190614142565b925050819055508673ffffffffffffffffffffffffffffffffffffffff16600073ffffffffffffffffffffffffffffffffffffffff168473ffffffffffffffffffffffffffffffffffffffff167fc3d58168c5ae7397731d063d5bbf3d657854427343f4c083240f7aacaa2d0f628989604051611df092919061455a565b60405180910390a4611e0783600089858589612376565b611e16836000898989896125d0565b50505050505050565b6000600460009054906101000a900473ffffffffffffffffffffffffffffffffffffffff16905081600460006101000a81548173ffffffffffffffffffffffffffffffffffffffff021916908373ffffffffffffffffffffffffffffffffffffffff1602179055508173ffffffffffffffffffffffffffffffffffffffff168173ffffffffffffffffffffffffffffffffffffffff167f8be0079c531659141344cd1fd0a4f28419497f9722a3daafe3b4186f6b6457e060405160405180910390a35050565b600080611ef1836127a8565b9050611f4f81848060600190611f079190614592565b8080601f016020809104026020016040519081016040528093929190818152602001838380828437600081840152601f19601f82011690508083019250505050505050612833565b915050919050565b8173ffffffffffffffffffffffffffffffffffffffff168373ffffffffffffffffffffffffffffffffffffffff161415611fc6576040517f08c379a0000000000000000000000000000000000000000000000000000000008152600401611fbd90614667565b60405180910390fd5b80600160008573ffffffffffffffffffffffffffffffffffffffff1673ffffffffffffffffffffffffffffffffffffffff16815260200190815260200160002060008473ffffffffffffffffffffffffffffffffffffffff1673ffffffffffffffffffffffffffffffffffffffff16815260200190815260200160002060006101000a81548160ff0219169083151502179055508173ffffffffffffffffffffffffffffffffffffffff168373ffffffffffffffffffffffffffffffffffffffff167f17307eab39ab6107e8899845ad3d59bd9653f200f220920489ca2b5937696c31836040516120b791906131bf565b60405180910390a3505050565b600073ffffffffffffffffffffffffffffffffffffffff168473ffffffffffffffffffffffffffffffffffffffff161415612134576040517f08c379a000000000000000000000000000000000000000000000000000000000815260040161212b90614373565b60405180910390fd5b600061213e6118c6565b9050600061214b85612556565b9050600061215885612556565b9050612168838989858589612360565b600080600088815260200190815260200160002060008a73ffffffffffffffffffffffffffffffffffffffff1673ffffffffffffffffffffffffffffffffffffffff168152602001908152602001600020549050858110156121ff576040517f08c379a00000000000000000000000000000000000000000000000000000000081526004016121f690614405565b60405180910390fd5b85810360008089815260200190815260200160002060008b73ffffffffffffffffffffffffffffffffffffffff1673ffffffffffffffffffffffffffffffffffffffff168152602001908152602001600020819055508560008089815260200190815260200160002060008a73ffffffffffffffffffffffffffffffffffffffff1673ffffffffffffffffffffffffffffffffffffffff16815260200190815260200160002060008282546122b49190614142565b925050819055508773ffffffffffffffffffffffffffffffffffffffff168973ffffffffffffffffffffffffffffffffffffffff168573ffffffffffffffffffffffffffffffffffffffff167fc3d58168c5ae7397731d063d5bbf3d657854427343f4c083240f7aacaa2d0f628a8a60405161233192919061455a565b60405180910390a4612347848a8a86868a612376565b612355848a8a8a8a8a6125d0565b505050505050505050565b61236e86868686868661285a565b505050505050565b505050505050565b61239d8473ffffffffffffffffffffffffffffffffffffffff16612a2c565b1561254e578373ffffffffffffffffffffffffffffffffffffffff1663bc197c8187878686866040518663ffffffff1660e01b81526004016123e39594939291906146dc565b6020604051808303816000875af192505050801561241f57506040513d601f19601f8201168201806040525081019061241c9190614759565b60015b6124c55761242b614793565b806308c379a0141561248857506124406147b5565b8061244b575061248a565b806040517f08c379a000000000000000000000000000000000000000000000000000000000815260040161247f9190613273565b60405180910390fd5b505b6040517f08c379a00000000000000000000000000000000000000000000000000000000081526004016124bc906148bd565b60405180910390fd5b63bc197c8160e01b7bffffffffffffffffffffffffffffffffffffffffffffffffffffffff1916817bffffffffffffffffffffffffffffffffffffffffffffffffffffffff19161461254c576040517f08c379a00000000000000000000000000000000000000000000000000000000081526004016125439061494f565b60405180910390fd5b505b505050505050565b60606000600167ffffffffffffffff811115612575576125746132c7565b5b6040519080825280602002602001820160405280156125a35781602001602082028036833780820191505090505b50905082816000815181106125bb576125ba61409b565b5b60200260200101818152505080915050919050565b6125ef8473ffffffffffffffffffffffffffffffffffffffff16612a2c565b156127a0578373ffffffffffffffffffffffffffffffffffffffff1663f23a6e6187878686866040518663ffffffff1660e01b815260040161263595949392919061496f565b6020604051808303816000875af192505050801561267157506040513d601f19601f8201168201806040525081019061266e9190614759565b60015b6127175761267d614793565b806308c379a014156126da57506126926147b5565b8061269d57506126dc565b806040517f08c379a00000000000000000000000000000000000000000000000000000000081526004016126d19190613273565b60405180910390fd5b505b6040517f08c379a000000000000000000000000000000000000000000000000000000000815260040161270e906148bd565b60405180910390fd5b63f23a6e6160e01b7bffffffffffffffffffffffffffffffffffffffffffffffffffffffff1916817bffffffffffffffffffffffffffffffffffffffffffffffffffffffff19161461279e576040517f08c379a00000000000000000000000000000000000000000000000000000000081526004016127959061494f565b60405180910390fd5b505b505050505050565b600061282c7f6316f9ddd4d59a364f3b95c26bab9d392c3380ace0fff15e91ed76f0d8bcd15a836000013584602001358580604001906127e891906149c9565b6040516127f6929190614a5c565b60405180910390206040516020016128119493929190614a8e565b60405160208183030381529060405280519060200120612a4f565b9050919050565b60008060006128428585612a69565b9150915061284f81612abb565b819250505092915050565b612868868686868686612c90565b600073ffffffffffffffffffffffffffffffffffffffff168573ffffffffffffffffffffffffffffffffffffffff16141561291a5760005b8351811015612918578281815181106128bc576128bb61409b565b5b6020026020010151600360008684815181106128db576128da61409b565b5b6020026020010151815260200190815260200160002060008282546129009190614142565b9250508190555080612911906140f9565b90506128a0565b505b600073ffffffffffffffffffffffffffffffffffffffff168473ffffffffffffffffffffffffffffffffffffffff161415612a245760005b8351811015612a225760008482815181106129705761296f61409b565b5b60200260200101519050600084838151811061298f5761298e61409b565b5b60200260200101519050600060036000848152602001908152602001600020549050818110156129f4576040517f08c379a00000000000000000000000000000000000000000000000000000000081526004016129eb90614b45565b60405180910390fd5b818103600360008581526020019081526020016000208190555050505080612a1b906140f9565b9050612952565b505b505050505050565b6000808273ffffffffffffffffffffffffffffffffffffffff163b119050919050565b6000612a62612a5c612c98565b83612db2565b9050919050565b600080604183511415612aab5760008060006020860151925060408601519150606086015160001a9050612a9f87828585612de5565b94509450505050612ab4565b60006002915091505b9250929050565b60006004811115612acf57612ace614b65565b5b816004811115612ae257612ae1614b65565b5b1415612aed57612c8d565b60016004811115612b0157612b00614b65565b5b816004811115612b1457612b13614b65565b5b1415612b55576040517f08c379a0000000000000000000000000000000000000000000000000000000008152600401612b4c90614be0565b60405180910390fd5b60026004811115612b6957612b68614b65565b5b816004811115612b7c57612b7b614b65565b5b1415612bbd576040517f08c379a0000000000000000000000000000000000000000000000000000000008152600401612bb490614c4c565b60405180910390fd5b60036004811115612bd157612bd0614b65565b5b816004811115612be457612be3614b65565b5b1415612c25576040517f08c379a0000000000000000000000000000000000000000000000000000000008152600401612c1c90614cde565b60405180910390fd5b600480811115612c3857612c37614b65565b5b816004811115612c4b57612c4a614b65565b5b1415612c8c576040517f08c379a0000000000000000000000000000000000000000000000000000000008152600401612c8390614d70565b60405180910390fd5b5b50565b505050505050565b60007f000000000000000000000000000000000000000000000000000000000000000073ffffffffffffffffffffffffffffffffffffffff163073ffffffffffffffffffffffffffffffffffffffff16148015612d1457507f000000000000000000000000000000000000000000000000000000000000000046145b15612d41577f00000000000000000000000000000000000000000000000000000000000000009050612daf565b612dac7f00000000000000000000000000000000000000000000000000000000000000007f00000000000000000000000000000000000000000000000000000000000000007f0000000000000000000000000000000000000000000000000000000000000000612ef2565b90505b90565b60008282604051602001612dc7929190614e08565b60405160208183030381529060405280519060200120905092915050565b6000807f7fffffffffffffffffffffffffffffff5d576e7357a4501ddfe92f46681b20a08360001c1115612e20576000600391509150612ee9565b601b8560ff1614158015612e385750601c8560ff1614155b15612e4a576000600491509150612ee9565b600060018787878760405160008152602001604052604051612e6f9493929190614e5b565b6020604051602081039080840390855afa158015612e91573d6000803e3d6000fd5b505050602060405103519050600073ffffffffffffffffffffffffffffffffffffffff168173ffffffffffffffffffffffffffffffffffffffff161415612ee057600060019250925050612ee9565b80600092509250505b94509492505050565b60008383834630604051602001612f0d959493929190614ea0565b6040516020818303038152906040528051906020012090509392505050565b6040518060800160405280600081526020016060815260200160608152602001600073ffffffffffffffffffffffffffffffffffffffff1681525090565b828054612f7690613ed9565b90600052602060002090601f016020900481019282612f985760008555612fdf565b82601f10612fb157805160ff1916838001178555612fdf565b82800160010185558215612fdf579182015b82811115612fde578251825591602001919060010190612fc3565b5b509050612fec9190612ff0565b5090565b5b80821115613009576000816000905550600101612ff1565b5090565b6000604051905090565b600080fd5b600080fd5b600073ffffffffffffffffffffffffffffffffffffffff82169050919050565b600061304c82613021565b9050919050565b61305c81613041565b811461306757600080fd5b50565b60008135905061307981613053565b92915050565b6000819050919050565b6130928161307f565b811461309d57600080fd5b50565b6000813590506130af81613089565b92915050565b600080604083850312156130cc576130cb613017565b5b60006130da8582860161306a565b92505060206130eb858286016130a0565b9150509250929050565b6130fe8161307f565b82525050565b600060208201905061311960008301846130f5565b92915050565b60007fffffffff0000000000000000000000000000000000000000000000000000000082169050919050565b6131548161311f565b811461315f57600080fd5b50565b6000813590506131718161314b565b92915050565b60006020828403121561318d5761318c613017565b5b600061319b84828501613162565b91505092915050565b60008115159050919050565b6131b9816131a4565b82525050565b60006020820190506131d460008301846131b0565b92915050565b600081519050919050565b600082825260208201905092915050565b60005b838110156132145780820151818401526020810190506131f9565b83811115613223576000848401525b50505050565b6000601f19601f8301169050919050565b6000613245826131da565b61324f81856131e5565b935061325f8185602086016131f6565b61326881613229565b840191505092915050565b6000602082019050818103600083015261328d818461323a565b905092915050565b6000602082840312156132ab576132aa613017565b5b60006132b9848285016130a0565b91505092915050565b600080fd5b7f4e487b7100000000000000000000000000000000000000000000000000000000600052604160045260246000fd5b6132ff82613229565b810181811067ffffffffffffffff8211171561331e5761331d6132c7565b5b80604052505050565b600061333161300d565b905061333d82826132f6565b919050565b600067ffffffffffffffff82111561335d5761335c6132c7565b5b602082029050602081019050919050565b600080fd5b600061338661338184613342565b613327565b905080838252602082019050602084028301858111156133a9576133a861336e565b5b835b818110156133d257806133be88826130a0565b8452602084019350506020810190506133ab565b5050509392505050565b600082601f8301126133f1576133f06132c2565b5b8135613401848260208601613373565b91505092915050565b600080fd5b600067ffffffffffffffff82111561342a576134296132c7565b5b61343382613229565b9050602081019050919050565b82818337600083830152505050565b600061346261345d8461340f565b613327565b90508281526020810184848401111561347e5761347d61340a565b5b613489848285613440565b509392505050565b600082601f8301126134a6576134a56132c2565b5b81356134b684826020860161344f565b91505092915050565b600080600080600060a086880312156134db576134da613017565b5b60006134e98882890161306a565b95505060206134fa8882890161306a565b945050604086013567ffffffffffffffff81111561351b5761351a61301c565b5b613527888289016133dc565b935050606086013567ffffffffffffffff8111156135485761354761301c565b5b613554888289016133dc565b925050608086013567ffffffffffffffff8111156135755761357461301c565b5b61358188828901613491565b9150509295509295909350565b600067ffffffffffffffff8211156135a9576135a86132c7565b5b602082029050602081019050919050565b60006135cd6135c88461358e565b613327565b905080838252602082019050602084028301858111156135f0576135ef61336e565b5b835b818110156136195780613605888261306a565b8452602084019350506020810190506135f2565b5050509392505050565b600082601f830112613638576136376132c2565b5b81356136488482602086016135ba565b91505092915050565b6000806040838503121561366857613667613017565b5b600083013567ffffffffffffffff8111156136865761368561301c565b5b61369285828601613623565b925050602083013567ffffffffffffffff8111156136b3576136b261301c565b5b6136bf858286016133dc565b9150509250929050565b600081519050919050565b600082825260208201905092915050565b6000819050602082019050919050565b6136fe8161307f565b82525050565b600061371083836136f5565b60208301905092915050565b6000602082019050919050565b6000613734826136c9565b61373e81856136d4565b9350613749836136e5565b8060005b8381101561377a5781516137618882613704565b975061376c8361371c565b92505060018101905061374d565b5085935050505092915050565b600060208201905081810360008301526137a18184613729565b905092915050565b600080fd5b60008083601f8401126137c4576137c36132c2565b5b8235905067ffffffffffffffff8111156137e1576137e06137a9565b5b6020830191508360208202830111156137fd576137fc61336e565b5b9250929050565b6000806000806060858703121561381e5761381d613017565b5b600061382c878288016130a0565b945050602061383d878288016130a0565b935050604085013567ffffffffffffffff81111561385e5761385d61301c565b5b61386a878288016137ae565b925092505092959194509250565b61388181613041565b82525050565b600060808201905061389c60008301876130f5565b81810360208301526138ae818661323a565b905081810360408301526138c2818561323a565b90506138d16060830184613878565b95945050505050565b6000602082840312156138f0576138ef613017565b5b60006138fe8482850161306a565b91505092915050565b600060208201905061391c6000830184613878565b92915050565b600080fd5b60006080828403121561393d5761393c613922565b5b81905092915050565b60008060006060848603121561395f5761395e613017565b5b600061396d8682870161306a565b935050602061397e868287016130a0565b925050604084013567ffffffffffffffff81111561399f5761399e61301c565b5b6139ab86828701613927565b9150509250925092565b6000806000604084860312156139ce576139cd613017565b5b60006139dc868287016130a0565b935050602084013567ffffffffffffffff8111156139fd576139fc61301c565b5b613a09868287016137ae565b92509250509250925092565b613a1e816131a4565b8114613a2957600080fd5b50565b600081359050613a3b81613a15565b92915050565b60008060408385031215613a5857613a57613017565b5b6000613a668582860161306a565b9250506020613a7785828601613a2c565b9150509250929050565b600081519050919050565b600082825260208201905092915050565b6000819050602082019050919050565b600082825260208201905092915050565b6000613ac9826131da565b613ad38185613aad565b9350613ae38185602086016131f6565b613aec81613229565b840191505092915050565b613b0081613041565b82525050565b6000608083016000830151613b1e60008601826136f5565b5060208301518482036020860152613b368282613abe565b91505060408301518482036040860152613b508282613abe565b9150506060830151613b656060860182613af7565b508091505092915050565b6000613b7c8383613b06565b905092915050565b6000602082019050919050565b6000613b9c82613a81565b613ba68185613a8c565b935083602082028501613bb885613a9d565b8060005b85811015613bf45784840389528151613bd58582613b70565b9450613be083613b84565b925060208a01995050600181019050613bbc565b50829750879550505050505092915050565b60006020820190508181036000830152613c208184613b91565b905092915050565b60008060408385031215613c3f57613c3e613017565b5b6000613c4d8582860161306a565b9250506020613c5e8582860161306a565b9150509250929050565b600067ffffffffffffffff821115613c8357613c826132c7565b5b613c8c82613229565b9050602081019050919050565b6000613cac613ca784613c68565b613327565b905082815260208101848484011115613cc857613cc761340a565b5b613cd3848285613440565b509392505050565b600082601f830112613cf057613cef6132c2565b5b8135613d00848260208601613c99565b91505092915050565b60008060408385031215613d2057613d1f613017565b5b600083013567ffffffffffffffff811115613d3e57613d3d61301c565b5b613d4a85828601613cdb565b925050602083013567ffffffffffffffff811115613d6b57613d6a61301c565b5b613d7785828601613cdb565b9150509250929050565b600080600080600060a08688031215613d9d57613d9c613017565b5b6000613dab8882890161306a565b9550506020613dbc8882890161306a565b9450506040613dcd888289016130a0565b9350506060613dde888289016130a0565b925050608086013567ffffffffffffffff811115613dff57613dfe61301c565b5b613e0b88828901613491565b9150509295509295909350565b7f455243313135353a2061646472657373207a65726f206973206e6f742061207660008201527f616c6964206f776e657200000000000000000000000000000000000000000000602082015250565b6000613e74602a836131e5565b9150613e7f82613e18565b604082019050919050565b60006020820190508181036000830152613ea381613e67565b9050919050565b7f4e487b7100000000000000000000000000000000000000000000000000000000600052602260045260246000fd5b60006002820490506001821680613ef157607f821691505b60208210811415613f0557613f04613eaa565b5b50919050565b7f4d656d62657220646f65736e2774206578697374730000000000000000000000600082015250565b6000613f416015836131e5565b9150613f4c82613f0b565b602082019050919050565b60006020820190508181036000830152613f7081613f34565b9050919050565b7f455243313135353a2063616c6c6572206973206e6f7420746f6b656e206f776e60008201527f6572206e6f7220617070726f7665640000000000000000000000000000000000602082015250565b6000613fd3602f836131e5565b9150613fde82613f77565b604082019050919050565b6000602082019050818103600083015261400281613fc6565b9050919050565b7f455243313135353a206163636f756e747320616e6420696473206c656e67746860008201527f206d69736d617463680000000000000000000000000000000000000000000000602082015250565b60006140656029836131e5565b915061407082614009565b604082019050919050565b6000602082019050818103600083015261409481614058565b9050919050565b7f4e487b7100000000000000000000000000000000000000000000000000000000600052603260045260246000fd5b7f4e487b7100000000000000000000000000000000000000000000000000000000600052601160045260246000fd5b60006141048261307f565b91507fffffffffffffffffffffffffffffffffffffffffffffffffffffffffffffffff821415614137576141366140ca565b5b600182019050919050565b600061414d8261307f565b91506141588361307f565b9250827fffffffffffffffffffffffffffffffffffffffffffffffffffffffffffffffff0382111561418d5761418c6140ca565b5b828201905092915050565b60006060820190506141ad60008301866130f5565b81810360208301526141bf818561323a565b905081810360408301526141d3818461323a565b9050949350505050565b7f4f776e61626c653a206e6577206f776e657220697320746865207a65726f206160008201527f6464726573730000000000000000000000000000000000000000000000000000602082015250565b60006142396026836131e5565b9150614244826141dd565b604082019050919050565b600060208201905081810360008301526142688161422c565b9050919050565b7f455243313135353a2069647320616e6420616d6f756e7473206c656e6774682060008201527f6d69736d61746368000000000000000000000000000000000000000000000000602082015250565b60006142cb6028836131e5565b91506142d68261426f565b604082019050919050565b600060208201905081810360008301526142fa816142be565b9050919050565b7f455243313135353a207472616e7366657220746f20746865207a65726f20616460008201527f6472657373000000000000000000000000000000000000000000000000000000602082015250565b600061435d6025836131e5565b915061436882614301565b604082019050919050565b6000602082019050818103600083015261438c81614350565b9050919050565b7f455243313135353a20696e73756666696369656e742062616c616e636520666f60008201527f72207472616e7366657200000000000000000000000000000000000000000000602082015250565b60006143ef602a836131e5565b91506143fa82614393565b604082019050919050565b6000602082019050818103600083015261441e816143e2565b9050919050565b6000604082019050818103600083015261443f8185613729565b905081810360208301526144538184613729565b90509392505050565b7f4f776e61626c653a2063616c6c6572206973206e6f7420746865206f776e6572600082015250565b60006144926020836131e5565b915061449d8261445c565b602082019050919050565b600060208201905081810360008301526144c181614485565b9050919050565b7f455243313135353a206d696e7420746f20746865207a65726f2061646472657360008201527f7300000000000000000000000000000000000000000000000000000000000000602082015250565b60006145246021836131e5565b915061452f826144c8565b604082019050919050565b6000602082019050818103600083015261455381614517565b9050919050565b600060408201905061456f60008301856130f5565b61457c60208301846130f5565b9392505050565b600080fd5b600080fd5b600080fd5b600080833560016020038436030381126145af576145ae614583565b5b80840192508235915067ffffffffffffffff8211156145d1576145d0614588565b5b6020830192506001820236038313156145ed576145ec61458d565b5b509250929050565b7f455243313135353a2073657474696e6720617070726f76616c2073746174757360008201527f20666f722073656c660000000000000000000000000000000000000000000000602082015250565b60006146516029836131e5565b915061465c826145f5565b604082019050919050565b6000602082019050818103600083015261468081614644565b9050919050565b600081519050919050565b600082825260208201905092915050565b60006146ae82614687565b6146b88185614692565b93506146c88185602086016131f6565b6146d181613229565b840191505092915050565b600060a0820190506146f16000830188613878565b6146fe6020830187613878565b81810360408301526147108186613729565b905081810360608301526147248185613729565b9050818103608083015261473881846146a3565b90509695505050505050565b6000815190506147538161314b565b92915050565b60006020828403121561476f5761476e613017565b5b600061477d84828501614744565b91505092915050565b60008160e01c9050919050565b600060033d11156147b25760046000803e6147af600051614786565b90505b90565b600060443d10156147c557614848565b6147cd61300d565b60043d036004823e80513d602482011167ffffffffffffffff821117156147f5575050614848565b808201805167ffffffffffffffff8111156148135750505050614848565b80602083010160043d038501811115614830575050505050614848565b61483f826020018501866132f6565b82955050505050505b90565b7f455243313135353a207472616e7366657220746f206e6f6e204552433131353560008201527f526563656976657220696d706c656d656e746572000000000000000000000000602082015250565b60006148a76034836131e5565b91506148b28261484b565b604082019050919050565b600060208201905081810360008301526148d68161489a565b9050919050565b7f455243313135353a204552433131353552656365697665722072656a6563746560008201527f6420746f6b656e73000000000000000000000000000000000000000000000000602082015250565b60006149396028836131e5565b9150614944826148dd565b604082019050919050565b600060208201905081810360008301526149688161492c565b9050919050565b600060a0820190506149846000830188613878565b6149916020830187613878565b61499e60408301866130f5565b6149ab60608301856130f5565b81810360808301526149bd81846146a3565b90509695505050505050565b600080833560016020038436030381126149e6576149e5614583565b5b80840192508235915067ffffffffffffffff821115614a0857614a07614588565b5b602083019250600182023603831315614a2457614a2361458d565b5b509250929050565b600081905092915050565b6000614a438385614a2c565b9350614a50838584613440565b82840190509392505050565b6000614a69828486614a37565b91508190509392505050565b6000819050919050565b614a8881614a75565b82525050565b6000608082019050614aa36000830187614a7f565b614ab060208301866130f5565b614abd60408301856130f5565b614aca6060830184614a7f565b95945050505050565b7f455243313135353a206275726e20616d6f756e74206578636565647320746f7460008201527f616c537570706c79000000000000000000000000000000000000000000000000602082015250565b6000614b2f6028836131e5565b9150614b3a82614ad3565b604082019050919050565b60006020820190508181036000830152614b5e81614b22565b9050919050565b7f4e487b7100000000000000000000000000000000000000000000000000000000600052602160045260246000fd5b7f45434453413a20696e76616c6964207369676e61747572650000000000000000600082015250565b6000614bca6018836131e5565b9150614bd582614b94565b602082019050919050565b60006020820190508181036000830152614bf981614bbd565b9050919050565b7f45434453413a20696e76616c6964207369676e6174757265206c656e67746800600082015250565b6000614c36601f836131e5565b9150614c4182614c00565b602082019050919050565b60006020820190508181036000830152614c6581614c29565b9050919050565b7f45434453413a20696e76616c6964207369676e6174757265202773272076616c60008201527f7565000000000000000000000000000000000000000000000000000000000000602082015250565b6000614cc86022836131e5565b9150614cd382614c6c565b604082019050919050565b60006020820190508181036000830152614cf781614cbb565b9050919050565b7f45434453413a20696e76616c6964207369676e6174757265202776272076616c60008201527f7565000000000000000000000000000000000000000000000000000000000000602082015250565b6000614d5a6022836131e5565b9150614d6582614cfe565b604082019050919050565b60006020820190508181036000830152614d8981614d4d565b9050919050565b600081905092915050565b7f1901000000000000000000000000000000000000000000000000000000000000600082015250565b6000614dd1600283614d90565b9150614ddc82614d9b565b600282019050919050565b6000819050919050565b614e02614dfd82614a75565b614de7565b82525050565b6000614e1382614dc4565b9150614e1f8285614df1565b602082019150614e2f8284614df1565b6020820191508190509392505050565b600060ff82169050919050565b614e5581614e3f565b82525050565b6000608082019050614e706000830187614a7f565b614e7d6020830186614e4c565b614e8a6040830185614a7f565b614e976060830184614a7f565b95945050505050565b600060a082019050614eb56000830188614a7f565b614ec26020830187614a7f565b614ecf6040830186614a7f565b614edc60608301856130f5565b614ee96080830184613878565b969550505050505056fea264697066735822122055bbfcbb5c8f7667f3b0d15b72f88a8ee635485adf9159050ec3efa2cc76596764736f6c634300080c0033",
  "linkReferences": {},
  "deployedLinkReferences": {}
}